{
  "contractName": "AdaToken",
  "abi": [
    {
      "inputs": [],
      "payable": false,
      "stateMutability": "nonpayable",
      "type": "constructor"
    },
    {
      "constant": true,
      "inputs": [],
      "name": "totalSupply",
      "outputs": [
        {
          "internalType": "uint256",
          "name": "",
          "type": "uint256"
        }
      ],
      "payable": false,
      "stateMutability": "view",
      "type": "function"
    }
  ],
  "bytecode": "0x6080604052348015600f57600080fd5b50620f42406000819055506084806100286000396000f3fe6080604052348015600f57600080fd5b506004361060285760003560e01c806318160ddd14602d575b600080fd5b60336049565b6040518082815260200191505060405180910390f35b6000548156fea265627a7a72315820be80913720f05d36a0640767fbac1ed08b1b12eb2992d6a259df9089bcf6bd7264736f6c63430005100032",
  "source": "pragma solidity ^0.5.2;\r\n\r\ncontract AdaToken {\r\n\r\n\tuint256 public totalSupply;\r\n\r\n\tconstructor() public {\r\n        totalSupply = 1000000;\r\n    }\r\n\r\n}",
  "sourcePath": "F:\\BT\\New folder\\contracts\\AdaToken.sol",
  "compiler": {
    "name": "solc",
    "version": "0.5.16+commit.9c3226ce.Emscripten.clang"
  },
  "schemaVersion": "3.4.2",
  "updatedAt": "2021-07-29T09:45:03.522Z",
  "networkType": "ethereum",
  "devdoc": {
    "methods": {}
  },
  "userdoc": {
    "methods": {}
  }
}